{
  "contractName": "SingleBet",
  "abi": [
    {
      "constant": false,
      "inputs": [],
      "name": "destroyExpiredEvent",
      "outputs": [],
      "payable": false,
      "stateMutability": "nonpayable",
      "type": "function"
    },
    {
      "constant": true,
      "inputs": [],
      "name": "getBetMetaInfo",
      "outputs": [
        {
          "name": "",
          "type": "bool"
        },
        {
          "name": "",
          "type": "string"
        },
        {
          "name": "",
          "type": "string"
        },
        {
          "name": "",
          "type": "uint256"
        }
      ],
      "payable": false,
      "stateMutability": "view",
      "type": "function"
    },
    {
      "constant": true,
      "inputs": [],
      "name": "getWinnings",
      "outputs": [
        {
          "name": "",
          "type": "uint256"
        }
      ],
      "payable": false,
      "stateMutability": "view",
      "type": "function"
    },
    {
      "constant": false,
      "inputs": [
        {
          "name": "_winner",
          "type": "uint8"
        }
      ],
      "name": "settleBet",
      "outputs": [],
      "payable": false,
      "stateMutability": "nonpayable",
      "type": "function"
    },
    {
      "constant": true,
      "inputs": [
        {
          "name": "addr",
          "type": "address"
        }
      ],
      "name": "getBets",
      "outputs": [
        {
          "name": "",
          "type": "uint256"
        },
        {
          "name": "",
          "type": "uint256"
        },
        {
          "name": "",
          "type": "uint256"
        }
      ],
      "payable": false,
      "stateMutability": "view",
      "type": "function"
    },
    {
      "constant": true,
      "inputs": [],
      "name": "getWinner",
      "outputs": [
        {
          "name": "",
          "type": "uint8"
        }
      ],
      "payable": false,
      "stateMutability": "view",
      "type": "function"
    },
    {
      "constant": true,
      "inputs": [
        {
          "name": "choice",
          "type": "uint8"
        },
        {
          "name": "amount",
          "type": "uint256"
        }
      ],
      "name": "getPossibleWinnig",
      "outputs": [
        {
          "name": "",
          "type": "uint256"
        }
      ],
      "payable": false,
      "stateMutability": "view",
      "type": "function"
    },
    {
      "constant": false,
      "inputs": [
        {
          "name": "choice",
          "type": "uint8"
        }
      ],
      "name": "bet",
      "outputs": [],
      "payable": true,
      "stateMutability": "payable",
      "type": "function"
    },
    {
      "constant": false,
      "inputs": [],
      "name": "collectWinnigs",
      "outputs": [],
      "payable": false,
      "stateMutability": "nonpayable",
      "type": "function"
    },
    {
      "constant": true,
      "inputs": [],
      "name": "checkTotalBalance",
      "outputs": [
        {
          "name": "",
          "type": "uint256"
        }
      ],
      "payable": false,
      "stateMutability": "view",
      "type": "function"
    },
    {
      "inputs": [
        {
          "name": "_oracle",
          "type": "address"
        },
        {
          "name": "_homeTeamName",
          "type": "string"
        },
        {
          "name": "_awayTeamName",
          "type": "string"
        }
      ],
      "payable": false,
      "stateMutability": "nonpayable",
      "type": "constructor"
    },
    {
      "anonymous": false,
      "inputs": [
        {
          "indexed": false,
          "name": "wnr",
          "type": "uint8"
        }
      ],
      "name": "Settle",
      "type": "event"
    },
    {
      "anonymous": false,
      "inputs": [
        {
          "indexed": false,
          "name": "choice",
          "type": "uint8"
        },
        {
          "indexed": false,
          "name": "addr",
          "type": "address"
        },
        {
          "indexed": false,
          "name": "amount",
          "type": "uint256"
        }
      ],
      "name": "Bet",
      "type": "event"
    },
    {
      "anonymous": false,
      "inputs": [
        {
          "indexed": false,
          "name": "addr",
          "type": "address"
        },
        {
          "indexed": false,
          "name": "initalBet",
          "type": "uint256"
        },
        {
          "indexed": false,
          "name": "totalWinnigs",
          "type": "uint256"
        }
      ],
      "name": "CollectWinnigs",
      "type": "event"
    }
  ],
  "bytecode": "0x606060405260068054600160ff199091161761ff0019166102001762ff0000191662030000179055341561003257600080fd5b604051610d1c380380610d1c833981016040528080519190602001805182019190602001805160008054600160a060020a03338116600160a060020a0319928316179092556001805492881692909116919091179055909101905060048280516100a09291602001906100d2565b5060058180516100b49291602001906100d2565b50506003805460ff19166001179055505061012c420160025561016d565b828054600181600116156101000203166002900490600052602060002090601f016020900481019282601f1061011357805160ff1916838001178555610140565b82800160010185558215610140579182015b82811115610140578251825591602001919060010190610125565b5061014c929150610150565b5090565b61016a91905b8082111561014c5760008155600101610156565b90565b610ba08061017c6000396000f300606060405236156100a15763ffffffff7c010000000000000000000000000000000000000000000000000000000060003504166318420d0c81146100a657806356baba45146100bb57806370b7596b146101c05780637bb4d8ac146101e557806381e074ba146101fe5780638e7ea5b214610241578063c8aa19f81461026a578063d0821b0e14610286578063eb1131e414610294578063fe9882da146102a7575b600080fd5b34156100b157600080fd5b6100b96102ba565b005b34156100c657600080fd5b6100ce6102f1565b604051841515815260608101829052608060208201818152906040830190830186818151815260200191508051906020019080838360005b8381101561011e578082015183820152602001610106565b50505050905090810190601f16801561014b5780820380516001836020036101000a031916815260200191505b50838103825285818151815260200191508051906020019080838360005b83811015610181578082015183820152602001610169565b50505050905090810190601f1680156101ae5780820380516001836020036101000a031916815260200191505b50965050505050505060405180910390f35b34156101cb57600080fd5b6101d3610462565b60405190815260200160405180910390f35b34156101f057600080fd5b6100b960ff60043516610566565b341561020957600080fd5b61021d600160a060020a03600435166106b4565b60405180848152602001838152602001828152602001935050505060405180910390f35b341561024c57600080fd5b61025461071e565b60405160ff909116815260200160405180910390f35b341561027557600080fd5b6101d360ff60043516602435610740565b6100b960ff6004351661080d565b341561029f57600080fd5b6100b9610978565b34156102b257600080fd5b6101d3610aab565b60005433600160a060020a039081169116146102d557600080fd5b60025442116102e357600080fd5b600054600160a060020a0316ff5b60006102fb610b62565b610303610b62565b6000600360009054906101000a900460ff1660046005600254828054600181600116156101000203166002900480601f0160208091040260200160405190810160405280929190818152602001828054600181600116156101000203166002900480156103b15780601f10610386576101008083540402835291602001916103b1565b820191906000526020600020905b81548152906001019060200180831161039457829003601f168201915b50505050509250818054600181600116156101000203166002900480601f01602080910402602001604051908101604052809291908181526020018280546001816001161561010002031660029004801561044d5780601f106104225761010080835404028352916020019161044d565b820191906000526020600020905b81548152906001019060200180831161043057829003601f168201915b50505050509150935093509350935090919293565b600354600090819081908190819081908190819060ff161561048357600080fd5b600354610100900460ff16600090815260076020908152604080832033600160a060020a0316845290915290205496508615806104dd5750600160a060020a03331660009081526009602052604090205460ff1615156001145b156104eb576000975061055c565b6003546104ff90610100900460ff16610ab9565b600354610100900460ff166000908152600860205260409020549197509550935061052a8785610b38565b60ff80871660009081526008602052604080822054928a16825290205491945001915086612710838502040190508097505b5050505050505090565b60035460009081908190819060ff16151560011461058357600080fd5b600654859060ff808316911614806105a7575060065460ff82811661010090920416145b806105bf575060065460ff8281166201000090920416145b15156105ca57600080fd5b60015433600160a060020a039081169116146105e557600080fd5b6003805461ffff191661010060ff8916021790557f263dbb39bcbc8d585fe43342099503fb4adb88d02bebf095a3fdbfd36a64e8ba8660405160ff909116815260200160405180910390a161063986610ab9565b60ff8281166000908152600860205260408082208054600a80820491829003909255938516835291819020805492830492839003905593985091965094509250600160a060020a0333169083850180156108fc029151600060405180830381858888f1935050505015156106ac57600080fd5b505050505050565b60065460ff8082166000908152600760208181526040808420600160a060020a038816808652908352818520546101008804871686528484528286208287528452828620546201000090980490961685529282528084209284529190529020549091909193909250565b60035460009060ff161561073157600080fd5b50600354610100900460ff1690565b600080600080600080600088600660009054906101000a900460ff1660ff168160ff16148061077b575060065460ff82811661010090920416145b80610793575060065460ff8281166201000090920416145b151561079e57600080fd5b6107a78a610ab9565b60ff8c166000908152600860205260409020549198509650890194506107cd8986610b38565b60ff80881660009081526008602052604080822054928b168252902054919550019250600a830483039150612710848302049a9950505050505050505050565b60035460ff16151560011461082157600080fd5b600654819060ff80831691161480610845575060065460ff82811661010090920416145b8061085d575060065460ff8281166201000090920416145b151561086857600080fd5b60ff8216600090815260076020908152604080832033600160a060020a031684529091529020543481011161089c57600080fd5b60ff8216600090815260086020526040902054348101116108bc57600080fd5b60ff8216600090815260086020526040902054620f4240810210156108e057600080fd5b60ff8216600081815260076020908152604080832033600160a060020a03811685529083528184208054349081019091559484526008909252918290208054840190557f7826c074c67e7996f57e6db28e3f72bdf2896dfeca91b69e4266f2d86780e4019285925160ff9093168352600160a060020a0390911660208301526040808301919091526060909101905180910390a15050565b600354600090819060ff161561098d57600080fd5b600160a060020a03331660009081526009602052604090205460ff16156109b357600080fd5b600354610100900460ff16600090815260076020908152604080832033600160a060020a03168452909152812054925082116109eb57fe5b6109f3610462565b600160a060020a033390811660009081526009602052604090819020805460ff191660011790559192507f0a191381726ac96fa1d447b38387822db087b9ed59a639880468542e93f312999184908490518084600160a060020a0316600160a060020a03168152602001838152602001828152602001935050505060405180910390a1600160a060020a03331681156108fc0282604051600060405180830381858888f193505050501515610aa757600080fd5b5050565b600160a060020a0330163190565b600654600090819060ff84811691161415610ae957505060065460ff610100820481169162010000900416610b33565b60065460ff848116610100909204161415610b1557505060065460ff8082169162010000900416610b33565b8260ff1660031415610b3357505060065460ff808216916101009004165b915091565b6000620186a0830281600a8483811515610b4e57fe5b04811515610b5857fe5b0495945050505050565b602060405190810160405260008152905600a165627a7a72305820b127b79c868f8bcb4017a91e071afab984645ea317777806e16d283f6c1b3d430029",
  "source": "pragma solidity ^0.4.17;\n\ncontract SingleBet {\n    address private owner;\n    address private oracle;\n    uint expiration;\n\n    bool private isOpen;\n    uint8 private winner;\n\n    string private homeTeamName;\n    string private awayTeamName;\n\n    uint8 private choiceHome = 1;\n    uint8 private choiceAway = 2;\n    uint8 private choiceDraw = 3;\n\n    /**\n    * @dev Mapping of placed bets per choice\n    * choice 1 = home team win\n    * choice 2 = away team win\n    * choice 3 = draw\n    * @param choice => address => amount\n    */\n    mapping (uint8=>mapping (address=>uint)) bets;\n    mapping (uint8=>uint) totalBetsAmount;\n    mapping (address=>bool) payedCustomers;\n\n    modifier isOwner() {\n        require(owner == msg.sender);\n        _;\n    }\n\n    modifier isSettled() {\n        require(isOpen == false);\n        _;\n    }\n\n    modifier isNotOver() {\n        require(isOpen == true);\n        _;\n    }\n\n    modifier isValidChoice(uint8 choice) {\n        require(choice == choiceHome || choice == choiceAway || choice == choiceDraw);\n        _;\n    }\n\n    event Settle(uint8 wnr);\n    event Bet(uint8 choice, address addr, uint256 amount);\n    event CollectWinnigs(address addr, uint initalBet, uint totalWinnigs);\n\n    function SingleBet(address _oracle, string _homeTeamName, string _awayTeamName) public {\n        owner = msg.sender;\n        oracle = _oracle;\n        homeTeamName = _homeTeamName;\n        awayTeamName = _awayTeamName;\n        isOpen = true;\n        expiration = now + 5 minutes; //+ 1 weeks; For demo purposes commented out\n    }\n\n    function getBetMetaInfo() public view returns(bool, string, string, uint) {\n        return (isOpen, homeTeamName, awayTeamName, expiration);\n    }\n\n    function getWinner() isSettled public view returns(uint8) {\n        return winner;\n    }\n\n    /**\n    * @dev Oracle settles the bet. Recieves 10% of losing money\n    * as reward for giving the result.\n    * @param _winner 1 - home team, 2 - away team, 3 - draw\n    */\n    function settleBet(uint8 _winner) isNotOver isValidChoice(_winner) public {\n        require(msg.sender == oracle);\n        isOpen = false;\n        winner = _winner;\n        Settle(_winner);\n        \n        uint8 loser1;\n        uint8 loser2;\n        (loser1, loser2) = getLosers(_winner);\n\n        uint reward1 = totalBetsAmount[loser1] / 10;\n        totalBetsAmount[loser1] -= reward1;\n        uint reward2 = totalBetsAmount[loser2] / 10;\n        totalBetsAmount[loser2] -= reward2;\n\n        msg.sender.transfer(reward1 + reward2);\n    }\n\n    /**\n    * @dev Place bet on open event.\n    * @param choice 1 - home team, 2 - away team, 3 - draw\n    */\n    function bet(uint8 choice) isNotOver isValidChoice(choice) public payable {\n        require(bets[choice][msg.sender] + msg.value > bets[choice][msg.sender]);\n        require(totalBetsAmount[choice] + msg.value > totalBetsAmount[choice]);\n        require(totalBetsAmount[choice] * 10 ** 6 >= totalBetsAmount[choice]);\n        \n        bets[choice][msg.sender] += msg.value;\n        totalBetsAmount[choice] += msg.value;\n        Bet(choice, msg.sender, msg.value);\n    }\n\n    /**\n    * @dev Get bets placed by Address\n    * @param addr Betting address\n    * @return (home team bet amount, away team bet amount, draw bet amount)\n    */\n    function getBets(address addr) public view returns(uint, uint, uint) {\n        return (bets[choiceHome][addr], bets[choiceAway][addr], bets[choiceDraw][addr]);\n    }\n\n    function checkTotalBalance() public view returns(uint) {\n       return this.balance; \n    }\n\n    function getPossibleWinnig(uint8 choice, uint amount) isValidChoice(choice) public view returns(uint) {\n        uint8 loser1;\n        uint8 loser2;\n        (loser1, loser2) = getLosers(choice);\n        uint winnings = totalBetsAmount[choice] + amount;\n        uint percentageOfWins = getPercent(amount, winnings);\n        uint losings = totalBetsAmount[loser1] + totalBetsAmount[loser2];\n        uint afterOracle = (losings - (losings / 10));\n        \n        return (afterOracle * percentageOfWins) / 10 ** 4;\n    }\n\n    function collectWinnigs() isSettled public {\n        require(payedCustomers[msg.sender] == false);\n        uint initialBet = bets[winner][msg.sender];\n        assert(initialBet > 0);\n        \n        uint winningsForCustomer = getWinnings();\n\n        payedCustomers[msg.sender] = true;\n        CollectWinnigs(msg.sender, initialBet, winningsForCustomer);\n        \n        msg.sender.transfer(winningsForCustomer);\n    }\n\n    function getWinnings() isSettled public view returns(uint) {\n        uint initialBet = bets[winner][msg.sender];\n        if (initialBet == 0 || payedCustomers[msg.sender] == true) {\n            return 0;\n        }\n\n        uint8 loser1;\n        uint8 loser2;\n        (loser1, loser2) = getLosers(winner);\n        uint winnings = totalBetsAmount[winner];\n\n        \n        uint percentageOfWins = getPercent(initialBet, winnings);\n        uint losings = totalBetsAmount[loser1] + totalBetsAmount[loser2];\n        uint winningsForCustomer = ((losings * percentageOfWins) / 10 ** 4) + initialBet;\n        \n        return winningsForCustomer;\n    }\n\n    function destroyExpiredEvent() isOwner public {\n        require(now > expiration);\n        selfdestruct(owner);\n    }\n    \n    function getLosers(uint8 _winner) private view returns(uint8, uint8) {\n        if (_winner == choiceHome) {\n            return (choiceAway, choiceDraw);\n        }\n\n        if (_winner == choiceAway) {\n            return (choiceHome, choiceDraw);\n        }\n\n        if (_winner == 3) {\n            return (choiceHome, choiceAway);\n        }\n    }\n\n    /**\n    * @dev Get percentage, rouding down after 2nd decimal point\n    * https://stackoverflow.com/questions/42738640/division-in-ethereum-solidity/42739843\n    * @param numerator number to be divided\n    * @param denominator number dividing\n    * @return integer, percentage is 8773 => 87.73% \n    */\n    function getPercent(uint numerator, uint denominator) private pure returns(uint) {\n        uint _numerator = numerator * 10 ** (5);\n        uint _quotient = ((_numerator / denominator)) / 10;\n\n        return _quotient;\n    }\n}",
  "sourcePath": "C:\\Users\\Spas\\Desktop\\DApps-BettingContract\\contracts\\SingleBet.sol",
  "schemaVersion": "1.0.0",
  "updatedAt": "2018-02-27T19:28:01.312Z"
}